:020000040800F2
:1000000000900020350500081505000817050008B8
:1000100000000000000000000000000000000000E0
:1000200000000000000000000000000019050008AA
:1000300000000000000000001B0500081D0500086E
:100040008505000885050008850500088505000868
:100050008505000885050008850500088505000858
:100060008505000885050008850500088505000848
:100070008505000885050008850500088505000838
:100080008505000885050008850500088505000828
:100090008505000885050008850500088505000818
:1000A0008505000885050008850500088505000808
:0C00B0008505000885050008850500088E
:1000BC0010B5064C2378002B07D1054B002B02D032
:1000CC00044800E000BF0123237010BD0C00002089
:1000DC00000000002C160008044B10B5002B03D0B8
:1000EC000349044800E000BF10BDC04600000000FA
:1000FC00100000202C160008002243088B4274D3F9
:10010C0003098B425FD3030A8B4244D3030B8B420C
:10011C0028D3030C8B420DD3FF22090212BA030C15
:10012C008B4202D31212090265D0030B8B4219D3F6
:10013C0000E0090AC30B8B4201D3CB03C01A524116
:10014C00830B8B4201D38B03C01A5241430B8B425E
:10015C0001D34B03C01A5241030B8B4201D30B0347
:10016C00C01A5241C30A8B4201D3CB02C01A52416E
:10017C00830A8B4201D38B02C01A5241430A8B4231
:10018C0001D34B02C01A5241030A8B4201D30B021A
:10019C00C01A5241CDD2C3098B4201D3CB01C01A34
:1001AC00524183098B4201D38B01C01A524143093E
:1001BC008B4201D34B01C01A524103098B4201D32C
:1001CC000B01C01A5241C3088B4201D3CB00C01A99
:1001DC00524183088B4201D38B00C01A5241430811
:1001EC008B4201D34B00C01A5241411A00D2014636
:1001FC00524110467047FFE701B5002000F0F0F8BF
:10020C0002BDC0460029F7D076E7704703460B4382
:10021C007FD4002243088B4274D303098B425FD3F3
:10022C00030A8B4244D3030B8B4228D3030C8B421F
:10023C000DD3FF22090212BA030C8B4202D3121205
:10024C00090265D0030B8B4219D300E0090AC30BDA
:10025C008B4201D3CB03C01A5241830B8B4201D387
:10026C008B03C01A5241430B8B4201D34B03C01A70
:10027C005241030B8B4201D30B03C01A5241C30AE8
:10028C008B4201D3CB02C01A5241830A8B4201D359
:10029C008B02C01A5241430A8B4201D34B02C01A43
:1002AC005241030A8B4201D30B02C01A5241CDD2E8
:1002BC00C3098B4201D3CB01C01A524183098B4233
:1002CC0001D38B01C01A524143098B4201D34B011C
:1002DC00C01A524103098B4201D30B01C01A52417F
:1002EC00C3088B4201D3CB00C01A524183088B4206
:1002FC0001D38B00C01A524143088B4201D34B00EF
:10030C00C01A5241411A00D2014652411046704760
:10031C005DE0CA0F00D04942031000D34042534065
:10032C0000229C4603098B422DD3030A8B4212D325
:10033C00FC22890112BA030A8B420CD38901921157
:10034C008B4208D3890192118B4204D389013AD094
:10035C00921100E08909C3098B4201D3CB01C01A69
:10036C00524183098B4201D38B01C01A524143097C
:10037C008B4201D34B01C01A524103098B4201D36A
:10038C000B01C01A5241C3088B4201D3CB00C01AD7
:10039C00524183088B4201D38B00C01A5241D9D2EF
:1003AC0043088B4201D34B00C01A5241411A00D270
:1003BC000146634652415B10104601D34042002B6C
:1003CC0000D54942704763465B1000D3404201B5EB
:1003DC00002000F005F802BD0029F8D016E77047A0
:1003EC007047C04670B500260C4D0D4C641BA41014
:1003FC00A64209D1002601F013F90A4D0A4C641BE0
:10040C00A410A64205D170BDB300EB589847013635
:10041C00EEE7B300EB5898470136F2E748170008AF
:10042C0048170008481700084C17000803008218EA
:10043C00934200D1704719700133F9E730B593B08E
:10044C003822002104A8FFF7F1FF10220021684692
:10045C00FFF7ECFF8020800000F0AAFD022404943A
:10046C0080235B00079300250895C03B09930B94F0
:10047C000C94103B0D9316330E9390235B030F9348
:10048C0080231B05109380231B06119304A800F0F6
:10049C0001F9072300930194029503950221684604
:1004AC0000F0B0FB13B030BD00B583B000F0AEF877
:1004BC00FFF7C4FF01F0A6F8104A516B0123194352
:1004CC005163526B1A400192019A0D494B608B603B
:1004DC000133CB601E330B60A020C00500F058FC2C
:1004EC00A0202021C00500F00FFD0649002000F0DF
:1004FC008BFF642000F0B0F8F2E7C0460010024019
:10050C0028000020441600087047FEE7704770472B
:10051C0010B500F08FF810BD024B802212059A60C6
:10052C007047C04600ED00E00D488546FFF7F4FF2C
:10053C000C480D490D4A002302E0D458C450043332
:10054C00C4188C42F9D30A4A0A4C002301E0136008
:10055C000432A242FBD3FFF745FFFFF7A5FFFEE7EE
:10056C0000900020000000200C0000205017000814
:10057C000C000020F8040020FEE7000000B583B05A
:10058C000B4B196C012211431964196C0A4000922F
:10059C00009ADA6B802149050A43DA63DB6B0B4066
:1005AC000193019BC020C00000F068F803B000BDAF
:1005BC000010024010B50400114B1978002901D12C
:1005CC00012010BDFA208000FFF796FD01000D4BB5
:1005DC001868FFF791FD00F0CFFC00280DD1032C1B
:1005EC0001D90120EDE7013000222100404200F04A
:1005FC0093FC054B1C600020E3E70120E1E7C046BB
:10060C0004000020000000200800002010B5084A5B
:10061C00116880235B000B4313600020FFF7CAFFB7
:10062C00041E02D00124200010BDFFF7A7FFFAE73B
:10063C0000200240034B1B78034A11685B181360BF
:10064C007047C046040000203C000020014B186895
:10065C007047C0463C00002070B50400FFF7F6FF61
:10066C000500631C02D0044B1B78E418FFF7EEFF67
:10067C00401BA042FAD370BD04000020034A13684B
:10068C0003490B40034313607047C0460000014010
:10069C00FFF9FFFF70B582B0041E00D131E2036890
:1006AC00DB0739D5C14A916838230B40D168032246
:1006BC000A40102B26D0082B26D0636880225202C9
:1006CC0093427FD0A022D202934200D181E0B74B5B
:1006DC001A68B7490A401A601A68B6490A401A6083
:1006EC006368002B00D180E0FFF7B0FF0500AF4B33
:1006FC001B689B0310D4FFF7A9FF401B6428F6D995
:10070C000320FFE1032AD6D1A84B1B689B0303D51A
:10071C006368002B00D1F7E123689B0731D5A34A0E
:10072C00936838210B40D16803220A40102B6AD001
:10073C00002B6BD19D4A1268520503D5E268002A42
:10074C0000D1E3E1994842689B490A40616909027A
:10075C000A434260002B0DD1036898490B40216974
:10076C000B4303600368DB0A07221A40944BD34007
:10077C00944A1360944B1868FFF71CFF002800D0B4
:10078C00C6E123681B0700D481E0884B9A683823A4
:10079C001340182B73D0A369002B00D1B4E0834A0B
:1007AC00136E01210B431366FFF750FF05007F4BBF
:1007BC001B6E9B076BD4FFF749FF401B0228F6D931
:1007CC0003209FE1794A116880235B020B4313607D
:1007DC0086E7764B19688022D2020A431A601968A0
:1007EC00802252020A431A607AE7FFF72FFF0500B6
:1007FC006E4B1B689B038FD5FFF728FF401B6428AB
:10080C00F6D903207EE1022A92D193E7E368002B0C
:10081C0022D0664A136869490B4021690B43136067
:10082C00116880235B000B431360FFF70FFF05007B
:10083C005E4B1B685B0506D4FFF708FF401B0228C4
:10084C00F6D903205EE159494B685B4A1340626953
:10085C00120213434B6094E7544A13685B490B40F4
:10086C001360FFF7F3FE0500504B1B685B0588D542
:10087C00FFF7ECFE401B0228F6D9032042E14B4B5C
:10088C001B6E9B0703D5A369002B00D142E12368A3
:10089C005B0700D4A2E0454B9A6838231340202B09
:1008AC0045D0424BDB6BDB004AD4404AD16B8020F5
:1008BC0040050143D163D36B03400193019B012598
:1008CC00434B1B68DB053DD5A368012B4ED0052B94
:1008DC0052D0364BDA6D01218A43DA65DA6D033179
:1008EC008A43DA65A368002B50D0FFF7AFFE0600F1
:1008FC002E4BDB6D9B076FD4FFF7A8FE801B354B8F
:10090C009842F5D90320FDE0284A136E01218B4350
:10091C001366FFF79BFE0500244B1B6E9B07B6D599
:10092C00FFF794FE401B0228F6D90320EAE01F4B88
:10093C00DB6D9B0752D5A368002B4FD10120E1E062
:10094C000025BDE7224A116880235B000B4313602E
:10095C00FFF77CFE06001E4B1B68DB05B4D4FFF7CB
:10096C0075FE801B0228F6D90320CBE00F4AD36D0D
:10097C0001210B43D365B5E70C4BDA6D04210A4317
:10098C00DA65DA6D03390A43DA65ABE7FFF75EFE29
:10099C000600064BDB6D9B071ED5FFF757FE801B31
:1009AC000C4B9842F5D90320ACE0C0460010024035
:1009BC00FFFFFEFFFFFFFBFFFF80FFFFFFC7FFFFF7
:1009CC000024F4000000002008000020FFFEFFFFC0
:1009DC000070004088130000012D1ED0E369002B2D
:1009EC0000D199E0544A916838220A40102A60D00C
:1009FC00022B18D0504A136850490B401360FFF774
:100A0C0025FE04004C4B1B689B014BD5FFF71EFECB
:100A1C00001B0228F6D9032074E0474AD36B4849DF
:100A2C000B40D363DAE7444A136844490B40136024
:100A3C00FFF70CFE0500404B1B689B0106D5FFF72A
:100A4C0005FE401B0228F6D903205BE03A4AD36826
:100A5C003C491940236A606A0343A06A00020343BD
:100A6C00E06A0343206B0343606B03430B43D36087
:100A7C00116880235B040B431360D16880235B05F2
:100A8C000B43D360FFF7E2FD04002B4B1B689B016B
:100A9C0006D4FFF7DBFD001B0228F6D9032031E05A
:100AAC0000202FE0244AD36827490B40D360002054
:100ABC0028E0012B32D0204BDA6803231340216A43
:100ACC008B422DD170231340616A8B422AD1FE21B7
:100ADC00C9011140A36A1B02994225D1F8239B033B
:100AEC001340E16A8B4221D1E0231B051340216B9B
:100AFC008B421DD1520F5207636B9A421AD10020C0
:100B0C0000E0012002B070BD0120FBE70120F9E7F5
:100B1C000120F7E70120F5E70020F3E70120F1E7DA
:100B2C000120EFE70120EDE70120EBE70120E9E7E9
:100B3C000120E7E70120E5E700100240FFFFFFFE80
:100B4C00FFFFFFEF8C80C111FCFFFEEE10B52A4BAE
:100B5C009B6838221A4207D1274B1A68D20A0723FE
:100B6C0013402648D84010BD234B9A6838231340B5
:100B7C00082B3BD0204B9A6838231340102B0DD0F8
:100B8C001D4B9A6838231340202B31D01A4B9A688E
:100B9C0038231340182B26D00020E4E7164AD168DE
:100BAC000D3B0B40D2681209072111400131032B78
:100BBC000FD01248FFF7A0FA0F4BDA68120A7F2306
:100BCC00134058430C4BD968490F0131FFF794FA85
:100BDC00C9E70B48FFF790FA074BDA68120A7F2334
:100BEC0013405843EEE7FA20C001BCE70448BAE7CB
:100BFC0080200002B7E7C046001002400024F40039
:100C0C0000127A0070B504000D00002800D1AAE093
:100C1C00574B1A68072313408B4221D323689A073A
:100C2C000ED55B0705D5534A9168E023DB010B43D6
:100C3C009360504A936850490B40A1680B439360F2
:100C4C002368DB0754D56368012B20D0022B3BD0E3
:100C5C00002B3FD1474A126852051CD401206AE090
:100C6C00434A136807218B432B431360FFF7EEFCB9
:100C7C0006003F4B1A6807231340AB42CED0FFF758
:100C8C00E5FC801B3D4A9042F3D9032053E0394ADE
:100C9C001268920369D537498A6807208243134347
:100CAC008B60FFF7D3FC0600324B9B6838221A404E
:100CBC006368DB009A421BD0FFF7C8FC801B2F4BEC
:100CCC009842F1D9032036E02A4A12689201E2D404
:100CDC00012030E0032B05D0264AD26D9207DAD4DE
:100CEC00012028E0234A126E9207D4D4012022E07E
:100CFC001F4B1A6807231340AB421DD823685B07B0
:100D0C0006D51C4A93681E490B40E1680B4393605F
:100D1C00FFF71CFF174B9A68120A0F2313409B0016
:100D2C00184A9A581F231340D840174B1860174B7A
:100D3C001868FFF73FFC70BD0D4A136807218B4301
:100D4C002B431360FFF782FC0600094B1A6807233C
:100D5C001340AB42D2D0FFF779FC801B074B984273
:100D6C00F3D90320E7E70120E5E70120E3E7C046DC
:100D7C000020024000100240FFF0FFFF881300002B
:100D8C00FF8FFFFF54160008000000200800002011
:100D9C00F0B500235AE084685F000326BE40B443DC
:100DAC002600CC68BC4034438460446894434A6851
:100DBC001609012232409A402243426056E0DC0878
:100DCC000834A400265805321A4092000F27974089
:100DDC00BE430F6997403A00324322505AE0032633
:100DEC0000E00026A64034003C43434E18329200EB
:100DFC0094513468EA432600AE434F68FF0201D594
:100E0C002C4326003C4C26606468260016404F6834
:100E1C00BF0201D52C432600374C66608426A459AA
:100E2C00260016404F68BF0301D52C432600324CD8
:100E3C008427E6518026A45922404E68F60301D53A
:100E4C002A0022432C4D80242A5101330C682200A5
:100E5C00DA404FD001229A40250015401442F4D0BC
:100E6C0003244E683440013C012C94D903224C6875
:100E7C002240032A09D0C2685E000324B440A24376
:100E8C0014008A68B2402243C26003224C6822409C
:100E9C00022A94D004685E0003221700B740BC43BA
:100EAC004F683A40B24022430260C02292024C6822
:100EBC001442CAD09A0814001834A4000E4EA75934
:100ECC0003241C40E4000F26A640B743A026F605D9
:100EDC00B04286D0094EB04208D0094EB04207D07D
:100EEC00084EB04200D17AE705267BE7012679E768
:100EFC00022677E7F0BDC0460018024000040050FF
:100F0C0000080050000C0050426913000B401B04F9
:100F1C00914319438161704770B5002811DB830838
:100F2C00134EC0339B009D5903242040C000FF2268
:100F3C0014008440A54389010A4082402A439A51F7
:100F4C0070BD0F230340083B9B0806339B00094AE6
:100F5C00944663445C6803221040C000FC321500C8
:100F6C008540AC4389010A40824022435A60E7E73E
:100F7C0000E100E000ED00E0013880235B049842C2
:100F8C000FD2094A50600948036A1B021B0AC02190
:100F9C0009060B43036200239360073313600020A0
:100FAC0070470120FCE7C04610E000E000ED00E0D7
:100FBC0010B5104A136810490B400343136080238B
:100FCC009B00984201D0002010BD0C4B1B685800B0
:100FDC00C01840000A49FFF78FF80130054B5B69D8
:100FEC005B0503D5002803D00138F7E70020EBE7B9
:100FFC000320E9E700700040FFF9FFFF000000202C
:10100C0040420F0010B504008268531C40688342B4
:10101C0005D820688154A360E3680133E360A268BB
:10102C0063689A4200D010BD2168206900F0D0FAA4
:10103C00A368984203D001235B42E360F3E70023EB
:10104C00A360F0E7F8B5DE4657464E464546E0B598
:10105C0081460D0014001E000A9B9A460B9F080047
:10106C000123984605E02100FFF746F801239C4632
:10107C00E044A042F7D2B04500D2B04601231A009A
:10108C003A4093463B421AD15346002B17D0BB072C
:10109C0003D5002E19D0202700E020275346002B23
:1010AC000DD0C2450BD901235B429C46E24439006A
:1010BC004846FFF7A7FF4B46DB68002BEEDA4B46A2
:1010CC00DB68002B2EDB012703E03027E6E7013E2F
:1010DC006743012EFBD839002800FFF70DF8844236
:1010EC00F6D900E0070039002800FFF705F80600E4
:1010FC0039002800FFF786F80D00164B995D48461D
:10110C00FFF780FF4B46DB68002B05DB2100380026
:10111C00FEF7F2FFA742E5D25B46002B02D0534606
:10112C00002B05D1F0BCBB46B246A946A046F8BD83
:10113C005346002BF6D0C245F4D901235B429C46A2
:10114C00E24420214846FFF75DFF4B46DB68002B4D
:10115C00EEDAE7E718170008F0B5D6464F4680B52B
:10116C0083B00600894615009A460A9FCA1788184C
:10117C005040012403E02900FFF748F80134854270
:10118C00F9DD544500D25446002F06D04B46002BB7
:10119C0002DB0B9B5B0700D5013F0B9B9B0702D52A
:1011AC005346002B04D00B9BDB0701D4002F18D126
:1011BC00F368002B10DB4B46002B1FDB0B9B5B07F4
:1011CC0023D4F368002B07DB03230B9A1340022B69
:1011DC0020D0F368002B2FDA03B0C0BCBA46B1465E
:1011EC00F0BD002FE4D0A742E2D9013F202130000E
:1011FC00FFF708FFF368002BF3DAD9E75B42994657
:10120C002D213000FFF7FEFEDBE72B213000FFF72E
:10121C00F9FED6E75346002BDBD1002FD9D0002F97
:10122C00D7D0A742D5D9013F30213000FFF7EAFED5
:10123C00F368002BF3DACCE70B9B01930097534632
:10124C002A0049463000FFF7FDFEC5E7F0B5C6465B
:10125C0000B59AB080460C00150005AB15934023E1
:10126C001693002317931990189366E0002001221F
:10127C000AE0002206E0302B03D10223184301348C
:10128C0000E00022002A13D023782D2B08D0F2D8AE
:10129C00232B09D02B2BECD1042318430134F1E779
:1012AC00012318430134EDE7082318430134E9E71F
:1012BC00002721780A00303AD2B2092A07D8013423
:1012CC00BB00DB195B005B18303B1F00F1E72E29DC
:1012DC0002D00023227812E00134002306E001340E
:1012EC009A00D218520092191300303B2678310024
:1012FC003039C9B20929F2D9ECE7013422786C2AC9
:10130C00FBD0682AF9D0252A5ED012D3782A10D8BF
:10131C00582A0ED3583AD1B220290AD88A00394912
:10132C008A5897462B681A1D2A60197815A8FFF75A
:10133C0069FE0134189B002B4BDB2178013400290A
:10134C0047D0252992D015A8FFF75CFEF2E72A6852
:10135C00111D29601168019000970A2215A8FFF74A
:10136C00FBFEE6E72A68111D2960116801900097C1
:10137C000A2215A8FFF766FEDBE72A68111D296013
:10138C00116801900097102215A8FFF75BFED0E7BB
:10139C002B681A1D2A601F68397801370029C8D0BC
:1013AC0015A8FFF72FFE189B002BF5DAC1E72B6869
:1013BC001A1D2A6019680023019308330093102228
:1013CC0015A8FFF73FFEB4E7252115A8FFF71AFE75
:1013DC00AFE7189B002B0BDD179A002A0DD1179B3A
:1013EC000293189B0393029B039A944663441893AD
:1013FC0018981AB080BCB846F0BD05A9404600F05C
:10140C00E7F8ECE7941600080EB400B582B003AB15
:10141C0002CB019301AAFFF719FF02B008BC03B07D
:10142C0018470269C3689A4204D88068C01A8018A9
:10143C0001387047D01A0138FBE7F8B5CE4647465D
:10144C0080B504000E001700C568836899465B1BC5
:10145C009846934209D94368581900F0D7F8ED190A
:10146C00E560C0BCB946B046F8BD43685819424661
:10147C0000F0CCF84B46ED1AED19310041442A002E
:10148C00606800F0C3F8E560EBE7F8B5CE46474678
:10149C0080B5060088461700C4680023994615E0FD
:1014AC00001BB3689C466044013814E0736818193B
:1014BC002A00414600F0AAF8A944A8447F1B6419ED
:1014CC00B368A34211D0F460002F10D0306984426D
:1014DC00E6D2001B0138B3681B1B834200D9030002
:1014EC003D009F42E2D91D00E0E70024EBE74846AF
:1014FC00C0BCB946B046F8BD10B5134CA8220021AB
:10150C002000FEF793FF0323236163610F4AA2615E
:10151C000F4BE3618023DB0023620023A362636231
:10152C00E36222660B4A62661022A2662367E366B8
:10153C00636706E00F22D21A0749895C024AD1542C
:10154C0001330F2BF6D910BD4000002028170008DE
:10155C00F8000020E800002034170008F8B503005C
:10156C000F001600421C5400A418E400174AA418DB
:10157C004000C018C0001018C56A012D12D0022DF1
:10158C001DD0002D02D000252800F8BD2000FFF74B
:10159C0048FF8642F8D8320039002000FFF74DFF93
:1015AC003500F1E72000FFF73CFF3500864200D9FB
:1015BC0005002A0039002000FFF73FFFE4E7320066
:1015CC002000FFF762FF0500DEE7C0464000002068
:1015DC00F8B504000D001600094B1B78002B0CD03D
:1015EC00EFF31087012181F31088320029002000CD
:1015FC00FFF7B4FF87F31088F8BDFFF77DFFEFE727
:10160C004000002010B5FFF777FF10BD002310B588
:10161C009A4200D110BDCC5CC4540133F8E70000F1
:10162C00F8B5C046F8BC08BC9E467047F8B5C04635
:08163C00F8BC08BC9E46704793
:1016440052756E6E696E67204170700D0A0000005D
:101654000000000000000000000000000000000086
:101664000000000000000000000000000000000076
:10167400010000000200000003000000040000005C
:101684000600000007000000080000000900000038
:10169400861300083E1300083E1300083E1300089A
:1016A4003E1300083E1300083E1300083E130008D2
:1016B4003E1300083E1300083E13000830130008D0
:1016C4005A1300083E1300083E1300083E13000896
:1016D4003E1300083E1300083E1300083E130008A2
:1016E4003E1300083E1300083E1300083E13000892
:1016F400BA1300083E1300083E1300089C130008A8
:101704003E130008701300083E1300083E1300083F
:101714008613000830313233343536373839414294
:10172400434445465465726D696E616C0000000067
:1017340000000000000054545220524547474553CE
:0417440000000000A1
:04174800E5000008B0
:04174C00BD000008D4
:0C1750000024F400010000000400000070
:0400000508000535B5
:00000001FF
